{
  "contractName": "DeusMarketplace",
  "abi": [
    {
      "constant": true,
      "inputs": [
        {
          "name": "",
          "type": "uint256"
        }
      ],
      "name": "priceList",
      "outputs": [
        {
          "name": "",
          "type": "uint256"
        }
      ],
      "payable": false,
      "stateMutability": "view",
      "type": "function"
    },
    {
      "constant": true,
      "inputs": [
        {
          "name": "",
          "type": "uint256"
        }
      ],
      "name": "holderList",
      "outputs": [
        {
          "name": "",
          "type": "address"
        }
      ],
      "payable": false,
      "stateMutability": "view",
      "type": "function"
    },
    {
      "constant": true,
      "inputs": [],
      "name": "wallet",
      "outputs": [
        {
          "name": "",
          "type": "address"
        }
      ],
      "payable": false,
      "stateMutability": "view",
      "type": "function"
    },
    {
      "constant": true,
      "inputs": [],
      "name": "owner",
      "outputs": [
        {
          "name": "",
          "type": "address"
        }
      ],
      "payable": false,
      "stateMutability": "view",
      "type": "function"
    },
    {
      "constant": true,
      "inputs": [],
      "name": "fee_percentage",
      "outputs": [
        {
          "name": "",
          "type": "uint256"
        }
      ],
      "payable": false,
      "stateMutability": "view",
      "type": "function"
    },
    {
      "constant": false,
      "inputs": [
        {
          "name": "newOwner",
          "type": "address"
        }
      ],
      "name": "transferOwnership",
      "outputs": [],
      "payable": false,
      "stateMutability": "nonpayable",
      "type": "function"
    },
    {
      "constant": true,
      "inputs": [],
      "name": "token",
      "outputs": [
        {
          "name": "",
          "type": "address"
        }
      ],
      "payable": false,
      "stateMutability": "view",
      "type": "function"
    },
    {
      "inputs": [
        {
          "name": "_token",
          "type": "address"
        },
        {
          "name": "_wallet",
          "type": "address"
        }
      ],
      "payable": false,
      "stateMutability": "nonpayable",
      "type": "constructor"
    },
    {
      "anonymous": false,
      "inputs": [
        {
          "indexed": true,
          "name": "id",
          "type": "uint256"
        },
        {
          "indexed": false,
          "name": "price",
          "type": "uint256"
        },
        {
          "indexed": false,
          "name": "seller",
          "type": "address"
        }
      ],
      "name": "Stored",
      "type": "event"
    },
    {
      "anonymous": false,
      "inputs": [
        {
          "indexed": true,
          "name": "id",
          "type": "uint256"
        },
        {
          "indexed": false,
          "name": "seller",
          "type": "address"
        }
      ],
      "name": "Cancelled",
      "type": "event"
    },
    {
      "anonymous": false,
      "inputs": [
        {
          "indexed": true,
          "name": "id",
          "type": "uint256"
        },
        {
          "indexed": false,
          "name": "price",
          "type": "uint256"
        },
        {
          "indexed": false,
          "name": "seller",
          "type": "address"
        },
        {
          "indexed": false,
          "name": "buyer",
          "type": "address"
        }
      ],
      "name": "Sold",
      "type": "event"
    },
    {
      "anonymous": false,
      "inputs": [
        {
          "indexed": false,
          "name": "old_token",
          "type": "address"
        },
        {
          "indexed": false,
          "name": "new_token",
          "type": "address"
        }
      ],
      "name": "TokenChanged",
      "type": "event"
    },
    {
      "anonymous": false,
      "inputs": [
        {
          "indexed": false,
          "name": "old_wallet",
          "type": "address"
        },
        {
          "indexed": false,
          "name": "new_wallet",
          "type": "address"
        }
      ],
      "name": "WalletChanged",
      "type": "event"
    },
    {
      "anonymous": false,
      "inputs": [
        {
          "indexed": false,
          "name": "old_fee",
          "type": "uint256"
        },
        {
          "indexed": false,
          "name": "new_fee",
          "type": "uint256"
        }
      ],
      "name": "FeeChanged",
      "type": "event"
    },
    {
      "anonymous": false,
      "inputs": [
        {
          "indexed": true,
          "name": "previousOwner",
          "type": "address"
        },
        {
          "indexed": true,
          "name": "newOwner",
          "type": "address"
        }
      ],
      "name": "OwnershipTransferred",
      "type": "event"
    },
    {
      "constant": false,
      "inputs": [
        {
          "name": "_token",
          "type": "address"
        }
      ],
      "name": "setToken",
      "outputs": [],
      "payable": false,
      "stateMutability": "nonpayable",
      "type": "function"
    },
    {
      "constant": false,
      "inputs": [
        {
          "name": "_wallet",
          "type": "address"
        }
      ],
      "name": "setWallet",
      "outputs": [],
      "payable": false,
      "stateMutability": "nonpayable",
      "type": "function"
    },
    {
      "constant": false,
      "inputs": [
        {
          "name": "_percentage",
          "type": "uint256"
        }
      ],
      "name": "changeFeePercentage",
      "outputs": [],
      "payable": false,
      "stateMutability": "nonpayable",
      "type": "function"
    },
    {
      "constant": false,
      "inputs": [
        {
          "name": "_from",
          "type": "address"
        },
        {
          "name": "_tokenId",
          "type": "uint256"
        },
        {
          "name": "_data",
          "type": "bytes"
        }
      ],
      "name": "onERC721Received",
      "outputs": [
        {
          "name": "",
          "type": "bytes4"
        }
      ],
      "payable": false,
      "stateMutability": "nonpayable",
      "type": "function"
    },
    {
      "constant": false,
      "inputs": [
        {
          "name": "_id",
          "type": "uint256"
        }
      ],
      "name": "cancel",
      "outputs": [
        {
          "name": "",
          "type": "bool"
        }
      ],
      "payable": false,
      "stateMutability": "nonpayable",
      "type": "function"
    },
    {
      "constant": false,
      "inputs": [
        {
          "name": "_id",
          "type": "uint256"
        }
      ],
      "name": "buy",
      "outputs": [
        {
          "name": "",
          "type": "bool"
        }
      ],
      "payable": true,
      "stateMutability": "payable",
      "type": "function"
    },
    {
      "constant": true,
      "inputs": [
        {
          "name": "_id",
          "type": "uint256"
        }
      ],
      "name": "getPrice",
      "outputs": [
        {
          "name": "",
          "type": "uint256"
        }
      ],
      "payable": false,
      "stateMutability": "view",
      "type": "function"
    }
  ],
  "bytecode": "0x6060604052341561000f57600080fd5b60405160408061138283398101604052808051906020019091908051906020019091905050336000806101000a81548173ffffffffffffffffffffffffffffffffffffffff021916908373ffffffffffffffffffffffffffffffffffffffff16021790555033600160006101000a81548173ffffffffffffffffffffffffffffffffffffffff021916908373ffffffffffffffffffffffffffffffffffffffff16021790555081600460006101000a81548173ffffffffffffffffffffffffffffffffffffffff021916908373ffffffffffffffffffffffffffffffffffffffff16021790555080600260006101000a81548173ffffffffffffffffffffffffffffffffffffffff021916908373ffffffffffffffffffffffffffffffffffffffff160217905550600a6003819055505050611232806101506000396000f3006060604052600436106100d0576000357c0100000000000000000000000000000000000000000000000000000000900463ffffffff168063045585a4146100d5578063144fa6d71461010c57806316ad42ad1461014557806340e58ee5146101a8578063521eb273146101e35780638da5cb5b14610238578063c46ed45a1461028d578063d96a094a146102b6578063deaa59df146102e6578063e75722301461031f578063f0b9e5ba14610356578063f2fde38b1461042d578063fae1419214610466578063fc0c546a14610489575b600080fd5b34156100e057600080fd5b6100f660048080359060200190919050506104de565b6040518082815260200191505060405180910390f35b341561011757600080fd5b610143600480803573ffffffffffffffffffffffffffffffffffffffff169060200190919050506104f6565b005b341561015057600080fd5b6101666004808035906020019091905050610676565b604051808273ffffffffffffffffffffffffffffffffffffffff1673ffffffffffffffffffffffffffffffffffffffff16815260200191505060405180910390f35b34156101b357600080fd5b6101c960048080359060200190919050506106a9565b604051808215151515815260200191505060405180910390f35b34156101ee57600080fd5b6101f66108f9565b604051808273ffffffffffffffffffffffffffffffffffffffff1673ffffffffffffffffffffffffffffffffffffffff16815260200191505060405180910390f35b341561024357600080fd5b61024b61091f565b604051808273ffffffffffffffffffffffffffffffffffffffff1673ffffffffffffffffffffffffffffffffffffffff16815260200191505060405180910390f35b341561029857600080fd5b6102a0610945565b6040518082815260200191505060405180910390f35b6102cc600480803590602001909190505061094b565b604051808215151515815260200191505060405180910390f35b34156102f157600080fd5b61031d600480803573ffffffffffffffffffffffffffffffffffffffff16906020019091905050610c9b565b005b341561032a57600080fd5b6103406004808035906020019091905050610e1b565b6040518082815260200191505060405180910390f35b341561036157600080fd5b6103d9600480803573ffffffffffffffffffffffffffffffffffffffff1690602001909190803590602001909190803590602001908201803590602001908080601f01602080910402602001604051908101604052809392919081815260200183838082843782019150505050505091905050610e38565b60405180827bffffffffffffffffffffffffffffffffffffffffffffffffffffffff19167bffffffffffffffffffffffffffffffffffffffffffffffffffffffff1916815260200191505060405180910390f35b341561043857600080fd5b610464600480803573ffffffffffffffffffffffffffffffffffffffff16906020019091905050610fb9565b005b341561047157600080fd5b610487600480803590602001909190505061110e565b005b341561049457600080fd5b61049c6111bc565b604051808273ffffffffffffffffffffffffffffffffffffffff1673ffffffffffffffffffffffffffffffffffffffff16815260200191505060405180910390f35b60056020528060005260406000206000915090505481565b60008060009054906101000a900473ffffffffffffffffffffffffffffffffffffffff1673ffffffffffffffffffffffffffffffffffffffff163373ffffffffffffffffffffffffffffffffffffffff1614151561055357600080fd5b600460009054906101000a900473ffffffffffffffffffffffffffffffffffffffff16905081600460006101000a81548173ffffffffffffffffffffffffffffffffffffffff021916908373ffffffffffffffffffffffffffffffffffffffff1602179055507fec507b76e4056f09193394a4361b44129ec561809ddee312c7f97121f93bb58b81600460009054906101000a900473ffffffffffffffffffffffffffffffffffffffff16604051808373ffffffffffffffffffffffffffffffffffffffff1673ffffffffffffffffffffffffffffffffffffffff1681526020018273ffffffffffffffffffffffffffffffffffffffff1673ffffffffffffffffffffffffffffffffffffffff1681526020019250505060405180910390a15050565b60066020528060005260406000206000915054906101000a900473ffffffffffffffffffffffffffffffffffffffff1681565b60003373ffffffffffffffffffffffffffffffffffffffff166006600084815260200190815260200160002060009054906101000a900473ffffffffffffffffffffffffffffffffffffffff1673ffffffffffffffffffffffffffffffffffffffff1614151561071857600080fd5b60006006600084815260200190815260200160002060006101000a81548173ffffffffffffffffffffffffffffffffffffffff021916908373ffffffffffffffffffffffffffffffffffffffff16021790555060006005600084815260200190815260200160002081905550600460009054906101000a900473ffffffffffffffffffffffffffffffffffffffff1673ffffffffffffffffffffffffffffffffffffffff166342842e0e3033856040518463ffffffff167c0100000000000000000000000000000000000000000000000000000000028152600401808473ffffffffffffffffffffffffffffffffffffffff1673ffffffffffffffffffffffffffffffffffffffff1681526020018373ffffffffffffffffffffffffffffffffffffffff1673ffffffffffffffffffffffffffffffffffffffff1681526020018281526020019350505050600060405180830381600087803b151561087c57600080fd5b5af1151561088957600080fd5b505050817f26deca31ff8139a06c52453ce8985d34f7648a6d9af1d283c4063d052c355a0f33604051808273ffffffffffffffffffffffffffffffffffffffff1673ffffffffffffffffffffffffffffffffffffffff16815260200191505060405180910390a260019050919050565b600260009054906101000a900473ffffffffffffffffffffffffffffffffffffffff1681565b600160009054906101000a900473ffffffffffffffffffffffffffffffffffffffff1681565b60035481565b600080600080600034600560008881526020019081526020016000205414151561097457600080fd5b6006600087815260200190815260200160002060009054906101000a900473ffffffffffffffffffffffffffffffffffffffff169350600560008781526020019081526020016000205492506003546064848115156109cf57fe5b04029150818303905060006006600088815260200190815260200160002060006101000a81548173ffffffffffffffffffffffffffffffffffffffff021916908373ffffffffffffffffffffffffffffffffffffffff16021790555060006005600088815260200190815260200160002081905550600460009054906101000a900473ffffffffffffffffffffffffffffffffffffffff1673ffffffffffffffffffffffffffffffffffffffff166342842e0e3033896040518463ffffffff167c0100000000000000000000000000000000000000000000000000000000028152600401808473ffffffffffffffffffffffffffffffffffffffff1673ffffffffffffffffffffffffffffffffffffffff1681526020018373ffffffffffffffffffffffffffffffffffffffff1673ffffffffffffffffffffffffffffffffffffffff1681526020018281526020019350505050600060405180830381600087803b1515610b3c57600080fd5b5af11515610b4957600080fd5b505050600260009054906101000a900473ffffffffffffffffffffffffffffffffffffffff1673ffffffffffffffffffffffffffffffffffffffff166108fc839081150290604051600060405180830381858888f193505050501515610bae57600080fd5b8373ffffffffffffffffffffffffffffffffffffffff166108fc829081150290604051600060405180830381858888f193505050501515610bee57600080fd5b857f55390ad3bffeff90968b8c54d2ed0099a7dbd2d71bc56263a1abf5643f833fec848633604051808481526020018373ffffffffffffffffffffffffffffffffffffffff1673ffffffffffffffffffffffffffffffffffffffff1681526020018273ffffffffffffffffffffffffffffffffffffffff1673ffffffffffffffffffffffffffffffffffffffff168152602001935050505060405180910390a26001945050505050919050565b60008060009054906101000a900473ffffffffffffffffffffffffffffffffffffffff1673ffffffffffffffffffffffffffffffffffffffff163373ffffffffffffffffffffffffffffffffffffffff16141515610cf857600080fd5b600260009054906101000a900473ffffffffffffffffffffffffffffffffffffffff16905081600260006101000a81548173ffffffffffffffffffffffffffffffffffffffff021916908373ffffffffffffffffffffffffffffffffffffffff1602179055507f64cbbd34f3faebfd04eff088ae5832f6d254dbb81820b0055e9d85c534aa700d81600260009054906101000a900473ffffffffffffffffffffffffffffffffffffffff16604051808373ffffffffffffffffffffffffffffffffffffffff1673ffffffffffffffffffffffffffffffffffffffff1681526020018273ffffffffffffffffffffffffffffffffffffffff1673ffffffffffffffffffffffffffffffffffffffff1681526020019250505060405180910390a15050565b600060056000838152602001908152602001600020549050919050565b600080600460009054906101000a900473ffffffffffffffffffffffffffffffffffffffff1673ffffffffffffffffffffffffffffffffffffffff163373ffffffffffffffffffffffffffffffffffffffff16141515610e9757600080fd5b610ea0836111e2565b600190049050600081111515610eb557600080fd5b806005600086815260200190815260200160002081905550846006600086815260200190815260200160002060006101000a81548173ffffffffffffffffffffffffffffffffffffffff021916908373ffffffffffffffffffffffffffffffffffffffff160217905550837f34e35684e1da212d374ad99d50ac7bb9777d62061ab4ebce188466182cab88658287604051808381526020018273ffffffffffffffffffffffffffffffffffffffff1673ffffffffffffffffffffffffffffffffffffffff1681526020019250505060405180910390a263f0b9e5ba7c0100000000000000000000000000000000000000000000000000000000029150509392505050565b6000809054906101000a900473ffffffffffffffffffffffffffffffffffffffff1673ffffffffffffffffffffffffffffffffffffffff163373ffffffffffffffffffffffffffffffffffffffff1614151561101457600080fd5b600073ffffffffffffffffffffffffffffffffffffffff168173ffffffffffffffffffffffffffffffffffffffff161415151561105057600080fd5b8073ffffffffffffffffffffffffffffffffffffffff166000809054906101000a900473ffffffffffffffffffffffffffffffffffffffff1673ffffffffffffffffffffffffffffffffffffffff167f8be0079c531659141344cd1fd0a4f28419497f9722a3daafe3b4186f6b6457e060405160405180910390a3806000806101000a81548173ffffffffffffffffffffffffffffffffffffffff021916908373ffffffffffffffffffffffffffffffffffffffff16021790555050565b60008060009054906101000a900473ffffffffffffffffffffffffffffffffffffffff1673ffffffffffffffffffffffffffffffffffffffff163373ffffffffffffffffffffffffffffffffffffffff1614151561116b57600080fd5b6003549050816003819055507f5fc463da23c1b063e66f9e352006a7fbe8db7223c455dc429e881a2dfe2f94f181600354604051808381526020018281526020019250505060405180910390a15050565b600460009054906101000a900473ffffffffffffffffffffffffffffffffffffffff1681565b600080825114156111f95760006001029050611201565b602082015190505b9190505600a165627a7a72305820e4b9d17eca82c76382a1d47dcdf64dc4511c75c9cad64d907fe71cd358dda64c0029",
  "source": "pragma solidity 0.4.21;\n\nimport \"zeppelin-solidity/contracts/ownership/Ownable.sol\";\nimport \"zeppelin-solidity/contracts/token/ERC721/ERC721Receiver.sol\";\nimport \"zeppelin-solidity/contracts/token/ERC721/ERC721Basic.sol\";\n\ncontract DeusMarketplace is Ownable, ERC721Receiver {\n  address public owner;\n  address public wallet;\n  uint256 public fee_percentage;\n  ERC721Basic public token;\n  \n  mapping(uint256 => uint256) public priceList;\n  mapping(uint256 => address) public holderList;\n  \n  event Stored(uint256 indexed id, uint256 price, address seller);\n  event Cancelled(uint256 indexed id, address seller);\n  event Sold(uint256 indexed id, uint256 price, address seller, address buyer);\n  \n  event TokenChanged(address old_token, address new_token);\n  event WalletChanged(address old_wallet, address new_wallet);\n  event FeeChanged(uint256 old_fee, uint256 new_fee);\n  \n  function DeusMarketplace(address _token, address _wallet) public {\n    owner = msg.sender;\n    token = ERC721Basic(_token);\n    wallet = _wallet;\n    fee_percentage = 10;\n  }\n  \n  function setToken(address _token) public onlyOwner {\n    address old = token;\n    token = ERC721Basic(_token);\n    emit TokenChanged(old, token);\n  }\n  \n  function setWallet(address _wallet) public onlyOwner {\n    address old = wallet;\n    wallet = _wallet;\n    emit WalletChanged(old, wallet);\n  }\n  \n  function changeFeePercentage(uint256 _percentage) public onlyOwner {\n    uint256 old = fee_percentage;\n    fee_percentage = _percentage;\n    emit FeeChanged(old, fee_percentage);\n  }\n  \n  function onERC721Received(address _from, uint256 _tokenId, bytes _data) public returns(bytes4) {\n    require(msg.sender == address(token));\n    \n    uint256 _price = uint256(convertBytesToBytes32(_data));\n    \n    require(_price > 0);\n    \n    priceList[_tokenId] = _price;\n    holderList[_tokenId] = _from;\n  \n    emit Stored(_tokenId, _price, _from);\n    \n    return ERC721Receiver.ERC721_RECEIVED;\n  }\n  \n  function cancel(uint256 _id) public returns (bool) {\n    require(holderList[_id] == msg.sender);\n    \n    holderList[_id] = 0x0;\n    priceList[_id] = 0;\n    \n    token.safeTransferFrom(this, msg.sender, _id);\n  \n    emit Cancelled(_id, msg.sender);\n    \n    return true;\n  }\n  \n  function buy(uint256 _id) public payable returns (bool) {\n    require(priceList[_id] == msg.value);\n    \n    address oldHolder = holderList[_id];\n    uint256 price = priceList[_id];\n    \n    uint256 toWallet = price / 100 * fee_percentage;\n    uint256 toHolder = price - toWallet;\n    \n    holderList[_id] = 0x0;\n    priceList[_id] = 0;\n    \n    token.safeTransferFrom(this, msg.sender, _id);\n    wallet.transfer(toWallet);\n    oldHolder.transfer(toHolder);\n    \n    emit Sold(_id, price, oldHolder, msg.sender);\n    \n    return true;\n  }\n  \n  function getPrice(uint _id) public view returns(uint256) {\n    return priceList[_id];\n  }\n  \n  function convertBytesToBytes32(bytes inBytes) internal returns (bytes32 out) {\n    if (inBytes.length == 0) {\n      return 0x0;\n    }\n    \n    assembly {\n      out := mload(add(inBytes, 32))\n    }\n  }\n}\n",
  "sourcePath": "/Users/user/Documents/tokenville/ERC721/contracts/DeusMarketplace.sol",
  "compiler": {
    "name": "solc",
    "version": "0.4.21+commit.dfe3193c.Emscripten.clang"
  },
  "schemaVersion": "2.0.0",
  "updatedAt": "2018-04-24T11:17:38.658Z"
}